{
  "_format": "hh-sol-artifact-1",
  "contractName": "EventNFT",
  "sourceName": "contracts/EventNFT.sol",
  "abi": [
    {
      "inputs": [],
      "stateMutability": "nonpayable",
      "type": "constructor"
    },
    {
      "inputs": [
        {
          "internalType": "address",
          "name": "sender",
          "type": "address"
        },
        {
          "internalType": "uint256",
          "name": "tokenId",
          "type": "uint256"
        },
        {
          "internalType": "address",
          "name": "owner",
          "type": "address"
        }
      ],
      "name": "ERC721IncorrectOwner",
      "type": "error"
    },
    {
      "inputs": [
        {
          "internalType": "address",
          "name": "operator",
          "type": "address"
        },
        {
          "internalType": "uint256",
          "name": "tokenId",
          "type": "uint256"
        }
      ],
      "name": "ERC721InsufficientApproval",
      "type": "error"
    },
    {
      "inputs": [
        {
          "internalType": "address",
          "name": "approver",
          "type": "address"
        }
      ],
      "name": "ERC721InvalidApprover",
      "type": "error"
    },
    {
      "inputs": [
        {
          "internalType": "address",
          "name": "operator",
          "type": "address"
        }
      ],
      "name": "ERC721InvalidOperator",
      "type": "error"
    },
    {
      "inputs": [
        {
          "internalType": "address",
          "name": "owner",
          "type": "address"
        }
      ],
      "name": "ERC721InvalidOwner",
      "type": "error"
    },
    {
      "inputs": [
        {
          "internalType": "address",
          "name": "receiver",
          "type": "address"
        }
      ],
      "name": "ERC721InvalidReceiver",
      "type": "error"
    },
    {
      "inputs": [
        {
          "internalType": "address",
          "name": "sender",
          "type": "address"
        }
      ],
      "name": "ERC721InvalidSender",
      "type": "error"
    },
    {
      "inputs": [
        {
          "internalType": "uint256",
          "name": "tokenId",
          "type": "uint256"
        }
      ],
      "name": "ERC721NonexistentToken",
      "type": "error"
    },
    {
      "inputs": [
        {
          "internalType": "address",
          "name": "owner",
          "type": "address"
        }
      ],
      "name": "OwnableInvalidOwner",
      "type": "error"
    },
    {
      "inputs": [
        {
          "internalType": "address",
          "name": "account",
          "type": "address"
        }
      ],
      "name": "OwnableUnauthorizedAccount",
      "type": "error"
    },
    {
      "anonymous": false,
      "inputs": [
        {
          "indexed": true,
          "internalType": "address",
          "name": "owner",
          "type": "address"
        },
        {
          "indexed": true,
          "internalType": "address",
          "name": "approved",
          "type": "address"
        },
        {
          "indexed": true,
          "internalType": "uint256",
          "name": "tokenId",
          "type": "uint256"
        }
      ],
      "name": "Approval",
      "type": "event"
    },
    {
      "anonymous": false,
      "inputs": [
        {
          "indexed": true,
          "internalType": "address",
          "name": "owner",
          "type": "address"
        },
        {
          "indexed": true,
          "internalType": "address",
          "name": "operator",
          "type": "address"
        },
        {
          "indexed": false,
          "internalType": "bool",
          "name": "approved",
          "type": "bool"
        }
      ],
      "name": "ApprovalForAll",
      "type": "event"
    },
    {
      "anonymous": false,
      "inputs": [
        {
          "indexed": false,
          "internalType": "uint256",
          "name": "_fromTokenId",
          "type": "uint256"
        },
        {
          "indexed": false,
          "internalType": "uint256",
          "name": "_toTokenId",
          "type": "uint256"
        }
      ],
      "name": "BatchMetadataUpdate",
      "type": "event"
    },
    {
      "anonymous": false,
      "inputs": [
        {
          "indexed": false,
          "internalType": "uint256",
          "name": "_tokenId",
          "type": "uint256"
        }
      ],
      "name": "MetadataUpdate",
      "type": "event"
    },
    {
      "anonymous": false,
      "inputs": [
        {
          "indexed": true,
          "internalType": "address",
          "name": "previousOwner",
          "type": "address"
        },
        {
          "indexed": true,
          "internalType": "address",
          "name": "newOwner",
          "type": "address"
        }
      ],
      "name": "OwnershipTransferred",
      "type": "event"
    },
    {
      "anonymous": false,
      "inputs": [
        {
          "indexed": true,
          "internalType": "address",
          "name": "from",
          "type": "address"
        },
        {
          "indexed": true,
          "internalType": "address",
          "name": "to",
          "type": "address"
        },
        {
          "indexed": true,
          "internalType": "uint256",
          "name": "tokenId",
          "type": "uint256"
        }
      ],
      "name": "Transfer",
      "type": "event"
    },
    {
      "inputs": [
        {
          "internalType": "address",
          "name": "to",
          "type": "address"
        },
        {
          "internalType": "uint256",
          "name": "tokenId",
          "type": "uint256"
        }
      ],
      "name": "approve",
      "outputs": [],
      "stateMutability": "nonpayable",
      "type": "function"
    },
    {
      "inputs": [
        {
          "internalType": "address",
          "name": "owner",
          "type": "address"
        }
      ],
      "name": "balanceOf",
      "outputs": [
        {
          "internalType": "uint256",
          "name": "",
          "type": "uint256"
        }
      ],
      "stateMutability": "view",
      "type": "function"
    },
    {
      "inputs": [
        {
          "internalType": "uint256",
          "name": "",
          "type": "uint256"
        }
      ],
      "name": "eventCreators",
      "outputs": [
        {
          "internalType": "address",
          "name": "",
          "type": "address"
        }
      ],
      "stateMutability": "view",
      "type": "function"
    },
    {
      "inputs": [
        {
          "internalType": "uint256",
          "name": "",
          "type": "uint256"
        }
      ],
      "name": "eventIds",
      "outputs": [
        {
          "internalType": "uint256",
          "name": "",
          "type": "uint256"
        }
      ],
      "stateMutability": "view",
      "type": "function"
    },
    {
      "inputs": [
        {
          "internalType": "uint256",
          "name": "",
          "type": "uint256"
        }
      ],
      "name": "eventTokenURIs",
      "outputs": [
        {
          "internalType": "string",
          "name": "",
          "type": "string"
        }
      ],
      "stateMutability": "view",
      "type": "function"
    },
    {
      "inputs": [
        {
          "internalType": "uint256",
          "name": "tokenId",
          "type": "uint256"
        }
      ],
      "name": "getApproved",
      "outputs": [
        {
          "internalType": "address",
          "name": "",
          "type": "address"
        }
      ],
      "stateMutability": "view",
      "type": "function"
    },
    {
      "inputs": [
        {
          "internalType": "address",
          "name": "owner",
          "type": "address"
        },
        {
          "internalType": "address",
          "name": "operator",
          "type": "address"
        }
      ],
      "name": "isApprovedForAll",
      "outputs": [
        {
          "internalType": "bool",
          "name": "",
          "type": "bool"
        }
      ],
      "stateMutability": "view",
      "type": "function"
    },
    {
      "inputs": [
        {
          "internalType": "address",
          "name": "to",
          "type": "address"
        },
        {
          "internalType": "uint256",
          "name": "eventId",
          "type": "uint256"
        }
      ],
      "name": "mintTo",
      "outputs": [
        {
          "internalType": "uint256",
          "name": "",
          "type": "uint256"
        }
      ],
      "stateMutability": "nonpayable",
      "type": "function"
    },
    {
      "inputs": [],
      "name": "name",
      "outputs": [
        {
          "internalType": "string",
          "name": "",
          "type": "string"
        }
      ],
      "stateMutability": "view",
      "type": "function"
    },
    {
      "inputs": [],
      "name": "owner",
      "outputs": [
        {
          "internalType": "address",
          "name": "",
          "type": "address"
        }
      ],
      "stateMutability": "view",
      "type": "function"
    },
    {
      "inputs": [
        {
          "internalType": "uint256",
          "name": "tokenId",
          "type": "uint256"
        }
      ],
      "name": "ownerOf",
      "outputs": [
        {
          "internalType": "address",
          "name": "",
          "type": "address"
        }
      ],
      "stateMutability": "view",
      "type": "function"
    },
    {
      "inputs": [],
      "name": "renounceOwnership",
      "outputs": [],
      "stateMutability": "nonpayable",
      "type": "function"
    },
    {
      "inputs": [
        {
          "internalType": "address",
          "name": "from",
          "type": "address"
        },
        {
          "internalType": "address",
          "name": "to",
          "type": "address"
        },
        {
          "internalType": "uint256",
          "name": "tokenId",
          "type": "uint256"
        }
      ],
      "name": "safeTransferFrom",
      "outputs": [],
      "stateMutability": "nonpayable",
      "type": "function"
    },
    {
      "inputs": [
        {
          "internalType": "address",
          "name": "from",
          "type": "address"
        },
        {
          "internalType": "address",
          "name": "to",
          "type": "address"
        },
        {
          "internalType": "uint256",
          "name": "tokenId",
          "type": "uint256"
        },
        {
          "internalType": "bytes",
          "name": "data",
          "type": "bytes"
        }
      ],
      "name": "safeTransferFrom",
      "outputs": [],
      "stateMutability": "nonpayable",
      "type": "function"
    },
    {
      "inputs": [
        {
          "internalType": "address",
          "name": "operator",
          "type": "address"
        },
        {
          "internalType": "bool",
          "name": "approved",
          "type": "bool"
        }
      ],
      "name": "setApprovalForAll",
      "outputs": [],
      "stateMutability": "nonpayable",
      "type": "function"
    },
    {
      "inputs": [
        {
          "internalType": "uint256",
          "name": "eventId",
          "type": "uint256"
        },
        {
          "internalType": "address",
          "name": "creator",
          "type": "address"
        }
      ],
      "name": "setEventCreator",
      "outputs": [],
      "stateMutability": "nonpayable",
      "type": "function"
    },
    {
      "inputs": [
        {
          "internalType": "uint256",
          "name": "eventId",
          "type": "uint256"
        },
        {
          "internalType": "string",
          "name": "tokenURI",
          "type": "string"
        }
      ],
      "name": "setEventNFT",
      "outputs": [],
      "stateMutability": "nonpayable",
      "type": "function"
    },
    {
      "inputs": [
        {
          "internalType": "bytes4",
          "name": "interfaceId",
          "type": "bytes4"
        }
      ],
      "name": "supportsInterface",
      "outputs": [
        {
          "internalType": "bool",
          "name": "",
          "type": "bool"
        }
      ],
      "stateMutability": "view",
      "type": "function"
    },
    {
      "inputs": [],
      "name": "symbol",
      "outputs": [
        {
          "internalType": "string",
          "name": "",
          "type": "string"
        }
      ],
      "stateMutability": "view",
      "type": "function"
    },
    {
      "inputs": [
        {
          "internalType": "uint256",
          "name": "tokenId",
          "type": "uint256"
        }
      ],
      "name": "tokenURI",
      "outputs": [
        {
          "internalType": "string",
          "name": "",
          "type": "string"
        }
      ],
      "stateMutability": "view",
      "type": "function"
    },
    {
      "inputs": [
        {
          "internalType": "address",
          "name": "from",
          "type": "address"
        },
        {
          "internalType": "address",
          "name": "to",
          "type": "address"
        },
        {
          "internalType": "uint256",
          "name": "tokenId",
          "type": "uint256"
        }
      ],
      "name": "transferFrom",
      "outputs": [],
      "stateMutability": "nonpayable",
      "type": "function"
    },
    {
      "inputs": [
        {
          "internalType": "address",
          "name": "newOwner",
          "type": "address"
        }
      ],
      "name": "transferOwnership",
      "outputs": [],
      "stateMutability": "nonpayable",
      "type": "function"
    }
  ],
  "bytecode": "0x608060405234801561001057600080fd5b50336040518060400160405280600881526020017f4576656e744e46540000000000000000000000000000000000000000000000008152506040518060400160405280600481526020017f45564e5400000000000000000000000000000000000000000000000000000000815250816000908161008d919061043d565b50806001908161009d919061043d565b505050600073ffffffffffffffffffffffffffffffffffffffff168173ffffffffffffffffffffffffffffffffffffffff16036101125760006040517f1e4fbdf70000000000000000000000000000000000000000000000000000000081526004016101099190610550565b60405180910390fd5b6101218161012760201b60201c565b5061056b565b6000600760009054906101000a900473ffffffffffffffffffffffffffffffffffffffff16905081600760006101000a81548173ffffffffffffffffffffffffffffffffffffffff021916908373ffffffffffffffffffffffffffffffffffffffff1602179055508173ffffffffffffffffffffffffffffffffffffffff168173ffffffffffffffffffffffffffffffffffffffff167f8be0079c531659141344cd1fd0a4f28419497f9722a3daafe3b4186f6b6457e060405160405180910390a35050565b600081519050919050565b7f4e487b7100000000000000000000000000000000000000000000000000000000600052604160045260246000fd5b7f4e487b7100000000000000000000000000000000000000000000000000000000600052602260045260246000fd5b6000600282049050600182168061026e57607f821691505b60208210810361028157610280610227565b5b50919050565b60008190508160005260206000209050919050565b60006020601f8301049050919050565b600082821b905092915050565b6000600883026102e97fffffffffffffffffffffffffffffffffffffffffffffffffffffffffffffffff826102ac565b6102f386836102ac565b95508019841693508086168417925050509392505050565b6000819050919050565b6000819050919050565b600061033a6103356103308461030b565b610315565b61030b565b9050919050565b6000819050919050565b6103548361031f565b61036861036082610341565b8484546102b9565b825550505050565b600090565b61037d610370565b61038881848461034b565b505050565b5b818110156103ac576103a1600082610375565b60018101905061038e565b5050565b601f8211156103f1576103c281610287565b6103cb8461029c565b810160208510156103da578190505b6103ee6103e68561029c565b83018261038d565b50505b505050565b600082821c905092915050565b6000610414600019846008026103f6565b1980831691505092915050565b600061042d8383610403565b9150826002028217905092915050565b610446826101ed565b67ffffffffffffffff81111561045f5761045e6101f8565b5b6104698254610256565b6104748282856103b0565b600060209050601f8311600181146104a75760008415610495578287015190505b61049f8582610421565b865550610507565b601f1984166104b586610287565b60005b828110156104dd578489015182556001820191506020850194506020810190506104b8565b868310156104fa57848901516104f6601f891682610403565b8355505b6001600288020188555050505b505050505050565b600073ffffffffffffffffffffffffffffffffffffffff82169050919050565b600061053a8261050f565b9050919050565b61054a8161052f565b82525050565b60006020820190506105656000830184610541565b92915050565b612cc68061057a6000396000f3fe608060405234801561001057600080fd5b50600436106101425760003560e01c8063715018a6116100b8578063998f6ac01161007c578063998f6ac014610387578063a22cb465146103b7578063b88d4fde146103d3578063c87b56dd146103ef578063e985e9c51461041f578063f2fde38b1461044f57610142565b8063715018a6146102e15780637cd6af1b146102eb5780638da5cb5b1461031b57806395d89b411461033957806395fa6c501461035757610142565b806323b872dd1161010a57806323b872dd146101fd57806342842e0e14610219578063449a52f8146102355780634b03ade3146102655780636352211e1461028157806370a08231146102b157610142565b806301ffc9a71461014757806306fdde0314610177578063081812fc14610195578063095ea7b3146101c55780630e6e46c4146101e1575b600080fd5b610161600480360381019061015c9190611f9a565b61046b565b60405161016e9190611fe2565b60405180910390f35b61017f6104cc565b60405161018c919061208d565b60405180910390f35b6101af60048036038101906101aa91906120e5565b61055e565b6040516101bc9190612153565b60405180910390f35b6101df60048036038101906101da919061219a565b61057a565b005b6101fb60048036038101906101f6919061230f565b610590565b005b6102176004803603810190610212919061236b565b610693565b005b610233600480360381019061022e919061236b565b610795565b005b61024f600480360381019061024a919061219a565b6107b5565b60405161025c91906123cd565b60405180910390f35b61027f600480360381019061027a91906123e8565b6109b2565b005b61029b600480360381019061029691906120e5565b610a10565b6040516102a89190612153565b60405180910390f35b6102cb60048036038101906102c69190612428565b610a22565b6040516102d891906123cd565b60405180910390f35b6102e9610adc565b005b610305600480360381019061030091906120e5565b610af0565b604051610312919061208d565b60405180910390f35b610323610b90565b6040516103309190612153565b60405180910390f35b610341610bba565b60405161034e919061208d565b60405180910390f35b610371600480360381019061036c91906120e5565b610c4c565b60405161037e9190612153565b60405180910390f35b6103a1600480360381019061039c91906120e5565b610c7f565b6040516103ae91906123cd565b60405180910390f35b6103d160048036038101906103cc9190612481565b610c97565b005b6103ed60048036038101906103e89190612562565b610cad565b005b610409600480360381019061040491906120e5565b610cd2565b604051610416919061208d565b60405180910390f35b610439600480360381019061043491906125e5565b610de5565b6040516104469190611fe2565b60405180910390f35b61046960048036038101906104649190612428565b610e79565b005b6000634906490660e01b7bffffffffffffffffffffffffffffffffffffffffffffffffffffffff1916827bffffffffffffffffffffffffffffffffffffffffffffffffffffffff191614806104c557506104c482610eff565b5b9050919050565b6060600080546104db90612654565b80601f016020809104026020016040519081016040528092919081815260200182805461050790612654565b80156105545780601f1061052957610100808354040283529160200191610554565b820191906000526020600020905b81548152906001019060200180831161053757829003601f168201915b5050505050905090565b600061056982610fe1565b5061057382611069565b9050919050565b61058c82826105876110a6565b6110ae565b5050565b600a600083815260200190815260200160002060009054906101000a900473ffffffffffffffffffffffffffffffffffffffff1673ffffffffffffffffffffffffffffffffffffffff163373ffffffffffffffffffffffffffffffffffffffff16148061062f5750610600610b90565b73ffffffffffffffffffffffffffffffffffffffff163373ffffffffffffffffffffffffffffffffffffffff16145b61066e576040517f08c379a0000000000000000000000000000000000000000000000000000000008152600401610665906126d1565b60405180910390fd5b80600b6000848152602001908152602001600020908161068e919061289d565b505050565b600073ffffffffffffffffffffffffffffffffffffffff168273ffffffffffffffffffffffffffffffffffffffff16036107055760006040517f64a0ae920000000000000000000000000000000000000000000000000000000081526004016106fc9190612153565b60405180910390fd5b600061071983836107146110a6565b6110c0565b90508373ffffffffffffffffffffffffffffffffffffffff168173ffffffffffffffffffffffffffffffffffffffff161461078f578382826040517f64283d7b0000000000000000000000000000000000000000000000000000000081526004016107869392919061296f565b60405180910390fd5b50505050565b6107b083838360405180602001604052806000815250610cad565b505050565b60006107bf6112da565b6000600b600084815260200190815260200160002080546107df90612654565b905011610821576040517f08c379a0000000000000000000000000000000000000000000000000000000008152600401610818906129f2565b60405180910390fd5b600a600083815260200190815260200160002060009054906101000a900473ffffffffffffffffffffffffffffffffffffffff1673ffffffffffffffffffffffffffffffffffffffff168373ffffffffffffffffffffffffffffffffffffffff16036108c2576040517f08c379a00000000000000000000000000000000000000000000000000000000081526004016108b990612a5e565b60405180910390fd5b600860008154809291906108d590612aad565b9190505550600060085490506108eb8482611361565b61099081600b6000868152602001908152602001600020805461090d90612654565b80601f016020809104026020016040519081016040528092919081815260200182805461093990612654565b80156109865780601f1061095b57610100808354040283529160200191610986565b820191906000526020600020905b81548152906001019060200180831161096957829003601f168201915b505050505061145a565b8260096000838152602001908152602001600020819055508091505092915050565b6109ba6112da565b80600a600084815260200190815260200160002060006101000a81548173ffffffffffffffffffffffffffffffffffffffff021916908373ffffffffffffffffffffffffffffffffffffffff1602179055505050565b6000610a1b82610fe1565b9050919050565b60008073ffffffffffffffffffffffffffffffffffffffff168273ffffffffffffffffffffffffffffffffffffffff1603610a955760006040517f89c62b64000000000000000000000000000000000000000000000000000000008152600401610a8c9190612153565b60405180910390fd5b600360008373ffffffffffffffffffffffffffffffffffffffff1673ffffffffffffffffffffffffffffffffffffffff168152602001908152602001600020549050919050565b610ae46112da565b610aee60006114b6565b565b600b6020528060005260406000206000915090508054610b0f90612654565b80601f0160208091040260200160405190810160405280929190818152602001828054610b3b90612654565b8015610b885780601f10610b5d57610100808354040283529160200191610b88565b820191906000526020600020905b815481529060010190602001808311610b6b57829003601f168201915b505050505081565b6000600760009054906101000a900473ffffffffffffffffffffffffffffffffffffffff16905090565b606060018054610bc990612654565b80601f0160208091040260200160405190810160405280929190818152602001828054610bf590612654565b8015610c425780601f10610c1757610100808354040283529160200191610c42565b820191906000526020600020905b815481529060010190602001808311610c2557829003601f168201915b5050505050905090565b600a6020528060005260406000206000915054906101000a900473ffffffffffffffffffffffffffffffffffffffff1681565b60096020528060005260406000206000915090505481565b610ca9610ca26110a6565b838361157c565b5050565b610cb8848484610693565b610ccc610cc36110a6565b858585856116eb565b50505050565b6060610cdd82610fe1565b506000600660008481526020019081526020016000208054610cfe90612654565b80601f0160208091040260200160405190810160405280929190818152602001828054610d2a90612654565b8015610d775780601f10610d4c57610100808354040283529160200191610d77565b820191906000526020600020905b815481529060010190602001808311610d5a57829003601f168201915b505050505090506000610d8861189c565b90506000815103610d9d578192505050610de0565b600082511115610dd2578082604051602001610dba929190612b31565b60405160208183030381529060405292505050610de0565b610ddb846118b3565b925050505b919050565b6000600560008473ffffffffffffffffffffffffffffffffffffffff1673ffffffffffffffffffffffffffffffffffffffff16815260200190815260200160002060008373ffffffffffffffffffffffffffffffffffffffff1673ffffffffffffffffffffffffffffffffffffffff16815260200190815260200160002060009054906101000a900460ff16905092915050565b610e816112da565b600073ffffffffffffffffffffffffffffffffffffffff168173ffffffffffffffffffffffffffffffffffffffff1603610ef35760006040517f1e4fbdf7000000000000000000000000000000000000000000000000000000008152600401610eea9190612153565b60405180910390fd5b610efc816114b6565b50565b60007f80ac58cd000000000000000000000000000000000000000000000000000000007bffffffffffffffffffffffffffffffffffffffffffffffffffffffff1916827bffffffffffffffffffffffffffffffffffffffffffffffffffffffff19161480610fca57507f5b5e139f000000000000000000000000000000000000000000000000000000007bffffffffffffffffffffffffffffffffffffffffffffffffffffffff1916827bffffffffffffffffffffffffffffffffffffffffffffffffffffffff1916145b80610fda5750610fd98261191c565b5b9050919050565b600080610fed83611986565b9050600073ffffffffffffffffffffffffffffffffffffffff168173ffffffffffffffffffffffffffffffffffffffff160361106057826040517f7e27328900000000000000000000000000000000000000000000000000000000815260040161105791906123cd565b60405180910390fd5b80915050919050565b60006004600083815260200190815260200160002060009054906101000a900473ffffffffffffffffffffffffffffffffffffffff169050919050565b600033905090565b6110bb83838360016119c3565b505050565b6000806110cc84611986565b9050600073ffffffffffffffffffffffffffffffffffffffff168373ffffffffffffffffffffffffffffffffffffffff161461110e5761110d818486611b88565b5b600073ffffffffffffffffffffffffffffffffffffffff168173ffffffffffffffffffffffffffffffffffffffff161461119f576111506000856000806119c3565b6001600360008373ffffffffffffffffffffffffffffffffffffffff1673ffffffffffffffffffffffffffffffffffffffff168152602001908152602001600020600082825403925050819055505b600073ffffffffffffffffffffffffffffffffffffffff168573ffffffffffffffffffffffffffffffffffffffff1614611222576001600360008773ffffffffffffffffffffffffffffffffffffffff1673ffffffffffffffffffffffffffffffffffffffff168152602001908152602001600020600082825401925050819055505b846002600086815260200190815260200160002060006101000a81548173ffffffffffffffffffffffffffffffffffffffff021916908373ffffffffffffffffffffffffffffffffffffffff160217905550838573ffffffffffffffffffffffffffffffffffffffff168273ffffffffffffffffffffffffffffffffffffffff167fddf252ad1be2c89b69c2b068fc378daa952ba7f163c4a11628f55a4df523b3ef60405160405180910390a4809150509392505050565b6112e26110a6565b73ffffffffffffffffffffffffffffffffffffffff16611300610b90565b73ffffffffffffffffffffffffffffffffffffffff161461135f576113236110a6565b6040517f118cdaa70000000000000000000000000000000000000000000000000000000081526004016113569190612153565b60405180910390fd5b565b600073ffffffffffffffffffffffffffffffffffffffff168273ffffffffffffffffffffffffffffffffffffffff16036113d35760006040517f64a0ae920000000000000000000000000000000000000000000000000000000081526004016113ca9190612153565b60405180910390fd5b60006113e1838360006110c0565b9050600073ffffffffffffffffffffffffffffffffffffffff168173ffffffffffffffffffffffffffffffffffffffff16146114555760006040517f73c6ac6e00000000000000000000000000000000000000000000000000000000815260040161144c9190612153565b60405180910390fd5b505050565b8060066000848152602001908152602001600020908161147a919061289d565b507ff8e1a15aba9398e019f0b49df1a4fde98ee17ae345cb5f6b5e2c27f5033e8ce7826040516114aa91906123cd565b60405180910390a15050565b6000600760009054906101000a900473ffffffffffffffffffffffffffffffffffffffff16905081600760006101000a81548173ffffffffffffffffffffffffffffffffffffffff021916908373ffffffffffffffffffffffffffffffffffffffff1602179055508173ffffffffffffffffffffffffffffffffffffffff168173ffffffffffffffffffffffffffffffffffffffff167f8be0079c531659141344cd1fd0a4f28419497f9722a3daafe3b4186f6b6457e060405160405180910390a35050565b600073ffffffffffffffffffffffffffffffffffffffff168273ffffffffffffffffffffffffffffffffffffffff16036115ed57816040517f5b08ba180000000000000000000000000000000000000000000000000000000081526004016115e49190612153565b60405180910390fd5b80600560008573ffffffffffffffffffffffffffffffffffffffff1673ffffffffffffffffffffffffffffffffffffffff16815260200190815260200160002060008473ffffffffffffffffffffffffffffffffffffffff1673ffffffffffffffffffffffffffffffffffffffff16815260200190815260200160002060006101000a81548160ff0219169083151502179055508173ffffffffffffffffffffffffffffffffffffffff168373ffffffffffffffffffffffffffffffffffffffff167f17307eab39ab6107e8899845ad3d59bd9653f200f220920489ca2b5937696c31836040516116de9190611fe2565b60405180910390a3505050565b60008373ffffffffffffffffffffffffffffffffffffffff163b1115611895578273ffffffffffffffffffffffffffffffffffffffff1663150b7a02868685856040518563ffffffff1660e01b815260040161174a9493929190612baa565b6020604051808303816000875af192505050801561178657506040513d601f19601f820116820180604052508101906117839190612c0b565b60015b61180a573d80600081146117b6576040519150601f19603f3d011682016040523d82523d6000602084013e6117bb565b606091505b50600081510361180257836040517f64a0ae920000000000000000000000000000000000000000000000000000000081526004016117f99190612153565b60405180910390fd5b805181602001fd5b63150b7a0260e01b7bffffffffffffffffffffffffffffffffffffffffffffffffffffffff1916817bffffffffffffffffffffffffffffffffffffffffffffffffffffffff19161461189357836040517f64a0ae9200000000000000000000000000000000000000000000000000000000815260040161188a9190612153565b60405180910390fd5b505b5050505050565b606060405180602001604052806000815250905090565b60606118be82610fe1565b5060006118c961189c565b905060008151116118e95760405180602001604052806000815250611914565b806118f384611c4c565b604051602001611904929190612b31565b6040516020818303038152906040525b915050919050565b60007f01ffc9a7000000000000000000000000000000000000000000000000000000007bffffffffffffffffffffffffffffffffffffffffffffffffffffffff1916827bffffffffffffffffffffffffffffffffffffffffffffffffffffffff1916149050919050565b60006002600083815260200190815260200160002060009054906101000a900473ffffffffffffffffffffffffffffffffffffffff169050919050565b80806119fc5750600073ffffffffffffffffffffffffffffffffffffffff168273ffffffffffffffffffffffffffffffffffffffff1614155b15611b30576000611a0c84610fe1565b9050600073ffffffffffffffffffffffffffffffffffffffff168373ffffffffffffffffffffffffffffffffffffffff1614158015611a7757508273ffffffffffffffffffffffffffffffffffffffff168173ffffffffffffffffffffffffffffffffffffffff1614155b8015611a8a5750611a888184610de5565b155b15611acc57826040517fa9fbf51f000000000000000000000000000000000000000000000000000000008152600401611ac39190612153565b60405180910390fd5b8115611b2e57838573ffffffffffffffffffffffffffffffffffffffff168273ffffffffffffffffffffffffffffffffffffffff167f8c5be1e5ebec7d5bd14f71427d1e84f3dd0314c0f7b2291e5b200ac8c7c3b92560405160405180910390a45b505b836004600085815260200190815260200160002060006101000a81548173ffffffffffffffffffffffffffffffffffffffff021916908373ffffffffffffffffffffffffffffffffffffffff16021790555050505050565b611b93838383611d1a565b611c4757600073ffffffffffffffffffffffffffffffffffffffff168373ffffffffffffffffffffffffffffffffffffffff1603611c0857806040517f7e273289000000000000000000000000000000000000000000000000000000008152600401611bff91906123cd565b60405180910390fd5b81816040517f177e802f000000000000000000000000000000000000000000000000000000008152600401611c3e929190612c38565b60405180910390fd5b505050565b606060006001611c5b84611ddb565b01905060008167ffffffffffffffff811115611c7a57611c796121e4565b5b6040519080825280601f01601f191660200182016040528015611cac5781602001600182028036833780820191505090505b509050600082602001820190505b600115611d0f578080600190039150507f3031323334353637383961626364656600000000000000000000000000000000600a86061a8153600a8581611d0357611d02612c61565b5b04945060008503611cba575b819350505050919050565b60008073ffffffffffffffffffffffffffffffffffffffff168373ffffffffffffffffffffffffffffffffffffffff1614158015611dd257508273ffffffffffffffffffffffffffffffffffffffff168473ffffffffffffffffffffffffffffffffffffffff161480611d935750611d928484610de5565b5b80611dd157508273ffffffffffffffffffffffffffffffffffffffff16611db983611069565b73ffffffffffffffffffffffffffffffffffffffff16145b5b90509392505050565b600080600090507a184f03e93ff9f4daa797ed6e38ed64bf6a1f0100000000000000008310611e39577a184f03e93ff9f4daa797ed6e38ed64bf6a1f0100000000000000008381611e2f57611e2e612c61565b5b0492506040810190505b6d04ee2d6d415b85acef81000000008310611e76576d04ee2d6d415b85acef81000000008381611e6c57611e6b612c61565b5b0492506020810190505b662386f26fc100008310611ea557662386f26fc100008381611e9b57611e9a612c61565b5b0492506010810190505b6305f5e1008310611ece576305f5e1008381611ec457611ec3612c61565b5b0492506008810190505b6127108310611ef3576127108381611ee957611ee8612c61565b5b0492506004810190505b60648310611f165760648381611f0c57611f0b612c61565b5b0492506002810190505b600a8310611f25576001810190505b80915050919050565b6000604051905090565b600080fd5b600080fd5b60007fffffffff0000000000000000000000000000000000000000000000000000000082169050919050565b611f7781611f42565b8114611f8257600080fd5b50565b600081359050611f9481611f6e565b92915050565b600060208284031215611fb057611faf611f38565b5b6000611fbe84828501611f85565b91505092915050565b60008115159050919050565b611fdc81611fc7565b82525050565b6000602082019050611ff76000830184611fd3565b92915050565b600081519050919050565b600082825260208201905092915050565b60005b8381101561203757808201518184015260208101905061201c565b60008484015250505050565b6000601f19601f8301169050919050565b600061205f82611ffd565b6120698185612008565b9350612079818560208601612019565b61208281612043565b840191505092915050565b600060208201905081810360008301526120a78184612054565b905092915050565b6000819050919050565b6120c2816120af565b81146120cd57600080fd5b50565b6000813590506120df816120b9565b92915050565b6000602082840312156120fb576120fa611f38565b5b6000612109848285016120d0565b91505092915050565b600073ffffffffffffffffffffffffffffffffffffffff82169050919050565b600061213d82612112565b9050919050565b61214d81612132565b82525050565b60006020820190506121686000830184612144565b92915050565b61217781612132565b811461218257600080fd5b50565b6000813590506121948161216e565b92915050565b600080604083850312156121b1576121b0611f38565b5b60006121bf85828601612185565b92505060206121d0858286016120d0565b9150509250929050565b600080fd5b600080fd5b7f4e487b7100000000000000000000000000000000000000000000000000000000600052604160045260246000fd5b61221c82612043565b810181811067ffffffffffffffff8211171561223b5761223a6121e4565b5b80604052505050565b600061224e611f2e565b905061225a8282612213565b919050565b600067ffffffffffffffff82111561227a576122796121e4565b5b61228382612043565b9050602081019050919050565b82818337600083830152505050565b60006122b26122ad8461225f565b612244565b9050828152602081018484840111156122ce576122cd6121df565b5b6122d9848285612290565b509392505050565b600082601f8301126122f6576122f56121da565b5b813561230684826020860161229f565b91505092915050565b6000806040838503121561232657612325611f38565b5b6000612334858286016120d0565b925050602083013567ffffffffffffffff81111561235557612354611f3d565b5b612361858286016122e1565b9150509250929050565b60008060006060848603121561238457612383611f38565b5b600061239286828701612185565b93505060206123a386828701612185565b92505060406123b4868287016120d0565b9150509250925092565b6123c7816120af565b82525050565b60006020820190506123e260008301846123be565b92915050565b600080604083850312156123ff576123fe611f38565b5b600061240d858286016120d0565b925050602061241e85828601612185565b9150509250929050565b60006020828403121561243e5761243d611f38565b5b600061244c84828501612185565b91505092915050565b61245e81611fc7565b811461246957600080fd5b50565b60008135905061247b81612455565b92915050565b6000806040838503121561249857612497611f38565b5b60006124a685828601612185565b92505060206124b78582860161246c565b9150509250929050565b600067ffffffffffffffff8211156124dc576124db6121e4565b5b6124e582612043565b9050602081019050919050565b6000612505612500846124c1565b612244565b905082815260208101848484011115612521576125206121df565b5b61252c848285612290565b509392505050565b600082601f830112612549576125486121da565b5b81356125598482602086016124f2565b91505092915050565b6000806000806080858703121561257c5761257b611f38565b5b600061258a87828801612185565b945050602061259b87828801612185565b93505060406125ac878288016120d0565b925050606085013567ffffffffffffffff8111156125cd576125cc611f3d565b5b6125d987828801612534565b91505092959194509250565b600080604083850312156125fc576125fb611f38565b5b600061260a85828601612185565b925050602061261b85828601612185565b9150509250929050565b7f4e487b7100000000000000000000000000000000000000000000000000000000600052602260045260246000fd5b6000600282049050600182168061266c57607f821691505b60208210810361267f5761267e612625565b5b50919050565b7f4e6f7420617574686f72697a656420746f20736574204e465400000000000000600082015250565b60006126bb601983612008565b91506126c682612685565b602082019050919050565b600060208201905081810360008301526126ea816126ae565b9050919050565b60008190508160005260206000209050919050565b60006020601f8301049050919050565b600082821b905092915050565b6000600883026127537fffffffffffffffffffffffffffffffffffffffffffffffffffffffffffffffff82612716565b61275d8683612716565b95508019841693508086168417925050509392505050565b6000819050919050565b600061279a612795612790846120af565b612775565b6120af565b9050919050565b6000819050919050565b6127b48361277f565b6127c86127c0826127a1565b848454612723565b825550505050565b600090565b6127dd6127d0565b6127e88184846127ab565b505050565b5b8181101561280c576128016000826127d5565b6001810190506127ee565b5050565b601f82111561285157612822816126f1565b61282b84612706565b8101602085101561283a578190505b61284e61284685612706565b8301826127ed565b50505b505050565b600082821c905092915050565b600061287460001984600802612856565b1980831691505092915050565b600061288d8383612863565b9150826002028217905092915050565b6128a682611ffd565b67ffffffffffffffff8111156128bf576128be6121e4565b5b6128c98254612654565b6128d4828285612810565b600060209050601f83116001811461290757600084156128f5578287015190505b6128ff8582612881565b865550612967565b601f198416612915866126f1565b60005b8281101561293d57848901518255600182019150602085019450602081019050612918565b8683101561295a5784890151612956601f891682612863565b8355505b6001600288020188555050505b505050505050565b60006060820190506129846000830186612144565b61299160208301856123be565b61299e6040830184612144565b949350505050565b7f4e4654206e6f742073657420666f722074686973206576656e74000000000000600082015250565b60006129dc601a83612008565b91506129e7826129a6565b602082019050919050565b60006020820190508181036000830152612a0b816129cf565b9050919050565b7f4576656e742063726561746f722063616e6e6f742072656365697665204e4654600082015250565b6000612a48602083612008565b9150612a5382612a12565b602082019050919050565b60006020820190508181036000830152612a7781612a3b565b9050919050565b7f4e487b7100000000000000000000000000000000000000000000000000000000600052601160045260246000fd5b6000612ab8826120af565b91507fffffffffffffffffffffffffffffffffffffffffffffffffffffffffffffffff8203612aea57612ae9612a7e565b5b600182019050919050565b600081905092915050565b6000612b0b82611ffd565b612b158185612af5565b9350612b25818560208601612019565b80840191505092915050565b6000612b3d8285612b00565b9150612b498284612b00565b91508190509392505050565b600081519050919050565b600082825260208201905092915050565b6000612b7c82612b55565b612b868185612b60565b9350612b96818560208601612019565b612b9f81612043565b840191505092915050565b6000608082019050612bbf6000830187612144565b612bcc6020830186612144565b612bd960408301856123be565b8181036060830152612beb8184612b71565b905095945050505050565b600081519050612c0581611f6e565b92915050565b600060208284031215612c2157612c20611f38565b5b6000612c2f84828501612bf6565b91505092915050565b6000604082019050612c4d6000830185612144565b612c5a60208301846123be565b9392505050565b7f4e487b7100000000000000000000000000000000000000000000000000000000600052601260045260246000fdfea2646970667358221220a135c283de4d7a7a81fde392b1a8657db0c6c42b75c1d827623e630ae2967e6264736f6c634300081c0033",
  "linkReferences": {},
  "deployedLinkReferences": {}
}